:10EBFE00FFEDF6FFEDFFFFEDF9FFEDFCFFEE02FF7F
:0BEC0E00EE05FF80FEFF80FFFFEE0B15
:03EDF60002EE101A
:03EDF90002EE0F18
:03EDFC0002EE1113
:03EDFF0002ECBD66
:03EE020002D7260E
:03EE050002EE0812
:0180FE00225F
:0180FF00225E
:01EE0B0022E4
:10810000902009E0FDD3940850207E007F00ED759B
:10811000F003A424FEF582E434EBF583740193FAB2
:0B812000740293F5828A8312891B22EF
:10ECE4007F099020007401F0A3DFFC7F0912C34662
:02ECF40080FBA3
:10BF160075B9019027D4E0FBA3E475F0011287F709
:10BF2600A9F0FAE5BC1287659027D4E0FBA3E47577
:10BF3600F0011287F7A9F0FAE5BD1287659027D4BC
:10BF4600E0FBA3E475F0011287F7A9F0FAE5BE124B
:10BF560087659027D4E0FBA3E475F0011287F7A963
:10BF6600F0FA22EBF0A3EAF0A3E9F022E0FBA3E06B
:10BF7600FAA3E0F92212871FF5BC9027D02274207D
:10BF86001287659027D02212871FF5BD9027D022F1
:10BF960012871FF5BE9027D02212871FF5BF75B9ED
:10BFA600022274201287659027CE2274201287659C
:10BFB6009027D02275B9059027D022AF058FC67578
:10BFC600B90512871FF5BC900001128738F5BD220E
:10BFD60074201287659027D22274201287659027D5
:10BFE600CE2274461287659027D022128765902745
:10BFF600D2221287659027CF221287659027CE22FC
:10C006001287659027CE221287659027D222128743
:10C01600659027D2221287659027D022AF058FC65A
:10C0260075B901E5BC128765900001E5BD22E0FC0B
:07C03600A3E0FDE402843BDE
:10E4B50075EF7CE4F5F5EF4410F5D820DCFDEF446D
:10E4C50010F5D820DCFDE5DA540F7F00FEADD9EF5D
:10E4D5002DFDE43EFCE412843B7BE67A3F791C7813
:07E4E5003F12822312847430
:01E4EC00220D
:05D255009027CEEDF072
:10D25A0012E4B59027CFEEF0A3EFF09027CEE0FFCF
:10D26A0012E4B59027D1EEF0A3EFF09027CF12C0C9
:10D27A0034C004C005C006C0079027D112C034A824
:10D28A0004A905AA06AB07D007D006D005D0041218
:10D29A00832CE4FBFA79047842128223E4FBFAF93C
:10D2AA00783F128132128474EF20E004C313FF2204
:0AD2BA00EF14C313FFC374209FFF9D
:01D2C4002247
:10EC660012BFC1900002128738F5BE9000031287CA
:06EC760038F5BF75B9027C
:01EC7C002275
:10EC7D0012C022128777900002E5BE1287779000AE
:06EC8D0003E5BF028777DA
:06EDD80012BFC175B90273
:01EDDE002212
:06EDE60012C02202877733
:10D333009027D412BF69E4F5C612BF16E5BF128762
:10D343006575C60112BF16E5BF12876575C6021261
:10D35300BF16E5BF12876575C60312BF16E5BF1278
:10D36300876575C60412BF16E5BF12876575C605C6
:10D3730075B90112BF58E5BC12BF55E5BD128765EB
:10D3830075C60675B90112BF58E5BC1287659027AB
:09D39300D412BF72E5BD028765EA
:10C940009027D012BF69E4F5C612BFBA12BF5B12BE
:10C95000BF7B12BF5B12BF8D12BF5B12BF9612BFAF
:10C960005B12BF9F75C60112BFBA12BF5B12BF7BBD
:10C9700012BF5B12BF8D12BF5B12BF9612BF5B125C
:10C98000BF9F75C60212BFBA12BF5B12BF7B12BF38
:10C990005B12BF8D12BF5B12BF9612BF5B12BF9FAF
:10C9A00075C60312BFBA12BF5B12BF7B12BF5B1208
:10C9B000BF8D12BF5B12BF9612BF5B12BF9F75C6C1
:10C9C0000412BFBA12BF5B12BF7B12BF5B12BF8DD6
:10C9D00012BF5B12BF9612BF5B12BF9F75C60512D6
:10C9E000BFBA12BF5B12BF7B12BF5B12871FF5BDC0
:10C9F00075B90275C60612BFBA12BF5B12BF7B12B1
:0BCA0000BF7212871FF5BD75B902223E
:10DEBE009027D212BF699027D212BF5B744212BF55
:10DECE00F112BF5B746112BFF112BF5B746312BFBC
:10DEDE00F112BF5B746B12BFF112BF5B743A12BFCB
:10DEEE00F112BF5B742012BFF112BF72741F028752
:01DEFE0065BE
:10E184009027D212BF699027D212BF5B745312BF7B
:10E19400D812BF5B746512BFD812BF5B746C12BF18
:10E1A400D812BF5B12BFD612BF5B743A12BFD8122B
:0DE1B400BF5B12BFD612BF72741C028765DC
:10DEFF009027CF12BF699027CF12BF5B745312BF09
:10DF0F00F812BF5B747712BFF812BF5B746112BF58
:10DF1F00F812BF5B747012BFF812BF5B743A12BF76
:10DF2F00F812BF5B741E12BFF812BF72741D028706
:01DF3F00657C
:10DF40009027CE12BF699027CE12BF5B745312BFC9
:10DF5000FF12BF5B746C12BFFF12BF5B746F12BF06
:10DF6000FF12BF5B747412BFFF12BF5B743A12BF23
:10DF7000FF12BF5B741E12BFFF12BF72741D0287B7
:01DF8000653B
:10DF81009027CE12BF699027CE12BF5B744D12C08D
:10DF91000612BF5B746512C00612BF5B746E12C0BD
:10DFA1000612BF5B747512C00612BF5B743A12C0D1
:10DFB1000612BF5B741E12C00612BF72741D028767
:01DFC10065FA
:10DFC2009027D212BF699027D212BF5B744D12C044
:10DFD2000D12BF5B746F12C00D12BF5B747212C060
:10DFE2000D12BF5B746512C00D12BF5B743A12C092
:10DFF2000D12BF5B741E12C00D12BF72741D028718
:01E0020065B8
:10E003009027D212BF699027D212BF5B744D12C002
:10E013001412BF5B746F12C01412BF5B747212C010
:10E023001412BF5B746512C01412BF5B743A12C042
:10E033001412BF5B742012C01412BF72741C0287C7
:01E043006577
:10E1C1009027CE12BF699027CE12BF5B745912BF40
:10E1D100E112BF5B746512BFE112BF5B747312BFC2
:10E1E100E112BF5B12BFDF12BF5B743A12BFE112D3
:0DE1F100BF5B12BFDF12BF72741C02876596
:10E23B009027CE12BF699027CE12BF5B744E12BFD0
:10E24B00AA12BF5B746F12BFAA12BF5B12BFA812D8
:10E25B00BF5B12BFA812BF5B743A12BFAA12BF5B9F
:0BE26B0012BFA812BF72741F0287656B
:10E276009027D012BF699027D012BF5B743A12BFA5
:10E28600B312BF5B741E12BFB312BF5B12BFB112D3
:10E29600BF5B12BFB112BF5B12BFB112BF5B741D71
:0BE2A60012BFB312BF72743A0287650A
:10E35F009027D012BF699027D012BF5B743A12BFBB
:10E36F008612BF5B741E12BF8612BF5B12BF841270
:10E37F00BF5B12BF8412BF5B12BF8412BF5B12BFA1
:09E38F008412BF7274200287653C
:10E044009027D012BF699027D012BF5B744412C0CE
:10E054001B12BF5B746F12C01B12BF5B746E12C0C5
:10E064001B12BF5B746512C01B12BF5B743A12C0F3
:10E074001B12BF5B742012C01B12BF72741C028778
:01E084006536
:10E1FE009027D012BF699027D012BF5B744F12BF09
:10E20E00EA12BF5B12BFE812BF5B12BFE812BF5B20
:10E21E00742012BFEA12BF5B742012BFEA12BF5BFA
:0DE22E00741D12BFEA12BF72743A028765B8
:10ED3C007D09868F150468724F53333253000000DF
:0A911B004225C900004225CB0000E8
:10B7AB007FAE7E477D817C3F9027E9E0F8A3E0F9EF
:10B7BB00A3E0FAA3E0FB229027DAE0FCA3E0FDA3D1
:10B7CB00E0FEA3E0FF223EF583E0FEA3E0FFC39083
:10B7DB0027E3E09FFD9027E2E09EFC12843B79205B
:10B7EB007841E4FBFA02832C1288479027E2E0FCB5
:10B7FB00A3E0FD902569E090256825E0FFE033FE8E
:10B80B00229027D274FFF0A374F9F02274182FF54D
:10B81B008274253EF583ECF0A3EDF0229027EAE04D
:10B82B0025E0FF9027E9E033FE229027E8E090180F
:10B83B0005F0E49027E9F0A3F022901805E090279B
:10B84B00E4F0541FF022128223E4FBFA79C878C18A
:10B85B00028132C39027EAE0940A9027E9E0940032
:10B86B00229027D274FFF0A374ECF0223EF583E014
:10B87B00FCA3E0FDE402843BC3EF94F9EE648094F7
:10B88B007F221281329027E9028847E0FCA3E0FD7A
:10B89B00D3EF9DEE9C22F0901805F0E49027E5F095
:10B8AB00229027DA1288479027E5E022EEF0A3EFEB
:10B8BB00F07FC37EF57D287C3E22E475F001128774
:10B8CB00F7FC746A25F0F58274253CF5837420F03F
:10B8DB0022C3EF94ECEE6480947F229027D2E4F0A5
:10B8EB00A37406F0221288479027EAE004F022A303
:10B8FB00E0246AF582E43425F58322E0FEA3C3E05D
:10B90B00FF9407EE64809480229027E2E0FEA3E090
:10B91B00FF229027E2E0FFA3E02274402FF5827410
:10B92B002522742C2FF58274252274542FF58274E2
:10B93B002522901804E09027E2F0229027E2E09075
:10B94B001804F022902516E0FD9024E0221281329B
:10B95B000284749027E9E004F022E4F0A3F0A3F052
:10B96B00A3227B017A2779DF9027DAE0229026FC4D
:0EB97B00E4F0A3743EF0229024EBE06401227D
:10C34600E4F5897F807E25FDFC12E59512EDC67F1A
:10C356007112ED2CE49027CBF09027CAF09027CBF2
:10C36600E0C3940450429027CAE0C394645039E075
:10C3760004F07D047F0512D2557E009026FCEEF077
:10C38600A3EFF09027CCE0B5060DA3E0B507089023
:10C3960027CBE004F080C69026FCE0FFA3E09027C0
:10C3A600CCCFF0A3EFF080B59027CAE0B4630312B8
:10C3B600B9789026FCE0FEA3E0FFD39420EE6480DB
:10C3C6009480500BC3EF9401EE6480948050031266
:10C3D600B9789026FCA3E09024E2F0D2B59025D659
:10C3E60012885300000000C20CC20AC20AE490255B
:10C3F60093F09025C9F0A3F075A81212966012E981
:10C406004CD2AF12C432300A1B200918901804E02F
:10C416009027CBF06404F0901804F0D20912EB07D1
:0CC42600C20BC20A300CDC12A74F80D7FA
:109660009027CE7401F0A37425F0A37473F0E4FF87
:10967000FE9027CEE0FBA3E475F0011287F7A9F076
:10968000FAE41287650FBF00010EEF641E4E70E111
:1096900012EBC69018047408F075E8A87B017A28CC
:1096A000790212D3337E007F0FAD0774022DF5824D
:1096B000E43428F583E07012D3EF9401EE648094D3
:1096C000804007EF1F70E21E80DF74FC2DF582E4FE
:1096D0003427F583E0B444089024EB7401F0801B38
:1096E00074FD2FF582E43427F583E0B43107E4906C
:1096F00024EBF080069024EB7402F0129A8460064A
:10970000E0D394014008E4FD7FDCFE12D892129A67
:10971000CF6006E0D394014003129AF9E4FF12E20D
:10972000B17F0112E2B17F0212E2B17F0312E2B116
:109730007A2579B97D26129A7C7A2579C17D2712FE
:10974000EC7D7A2579027D2A129A7C7A25790C7D26
:109750002B12EC7D7A2579A77D2E129AB27A257983
:10976000B07D2F12EC7D7A2479EC7D33129AB27A97
:109770002479F47D3412EC7D12B8BC9025B912B76F
:10978000B612822390250212B7B612B9589024D08F
:1097900012B8B79025C112B7B612822390250C12C9
:1097A000B7B612B9589024D4EEF0A3EFF07B017A4B
:1097B0002479FC7D3912EDE67B017A2579007D3A2A
:1097C00012EDE612B98260030298667A2579BD7DB2
:1097D00028129AF17A2579C57D2912EC7D7A2579AE
:1097E000087D2C129AF17A2579107D2D12EC7D7B63
:1097F000017A2579AC7D3012EC7D7B017A2579B533
:109800007D3212EC7D7B017A2479F07D3512EC7D7E
:109810007B017A2479F87D3612EC7D12B8BC902554
:10982000BD12B7B612822390250812B7B612B958E6
:109830009024D212B8B79025C512B7B612822390E1
:10984000251012B7B612B9589024DEEEF0A3EFF04F
:109850007B017A2479FE7D3B12EDE67B017A257946
:10986000067D3C12EDE67F387E0112E3D1EF6456AF
:10987000703F7F357E0112E3D1BFFF03129B027F51
:10988000377E0112E3D1BFFF03129B157F807E005C
:10989000129B3B6006E0D394024003129B32129A63
:1098A000846006E0D394014041E4FD7FDCFE029831
:1098B000E7129B02129B15129B32129AC612B86CC9
:1098C000129A207D4712EDD8129A327D4B12EDD8B4
:1098D00012B80C129A447D4812EDD8129AA6129A28
:1098E000BA7D567F387E0112D8927D45129A561263
:1098F000B885400512B80C800812B8DC500312B8C5
:109900006C129A207D47129A92400512B80C80087A
:1099100012B8DC500312B86C7D47129B287D4612AA
:109920009A569406EE64809480400512B8E680084A
:1099300012B883500312B80C129A447D48129ADD73
:10994000400512B8E6800812B883500312B80C7DA7
:1099500048129B28E4FF12C14612B98260030299A3
:10996000FB7F84FE129B3B6006E0D394024003120F
:109970009AC6129ACF6006E0D394014003129AF976
:109980007D49129A6912B885400512B80C800812F8
:10999000B8DC500312B86C129A327D4B129A924086
:1099A0000512B80C800812B8DC500312B86C7B01A9
:1099B0007A2779D27D4B12EDD87D4A129A699406A6
:1099C000EE64809480400512B8E6800812B8835097
:1099D0000312B80C129AA67B017A2779D27D4C1219
:1099E0009ADD400512B8E6800812B883500312B819
:1099F0000C129ABA7F0112C1468008E4FD7F84FEF2
:109A000012D892E4902568F0A3F09024E0F0A3F03F
:0F9A100090251412B966F09025ABF09025B4F0B4
:109A1F00227B017A2779D27D4512EDD87B017A27F7
:109A2F0079D2227B017A2779D27D4912EDD87B0139
:109A3F007A2779D2227B017A2779D27D4612EDD807
:109A4F007B017A2779D2227B017A2779D212EDE630
:109A5F009027D2E0FEA3E0FFD3227B017A2779D2B1
:109A6F0012EDE69027D2E0FEA3E0FFD3227B011296
:109A7F00EC7D7B01227FDC7E0012E3D19027D1EFBA
:109A8F00F0F42212EDE69027D2E0FEA3E0FFD3948C
:109A9F00F9EE6480947F227B017A2779D27D4A1276
:109AAF00EDD8227B0112EC7D7B01227B017A277995
:109ABF00D27D4C12EDD822E4FD7F84FE12D8922283
:109ACF007FE07E0012E3D19027D1EFF0F42212ED68
:109ADF00E69027D2E0FEA3E0FFD39406EE648094D5
:109AEF0080227B0112EC7D7B0122E4FD7FE0FE12E0
:109AFF00D892227DFF7F347E0112D8927D037F356D
:109B0F007E0112D892227DE07F367E0112D892E438
:109B1F00FD7F377E0112D892227B017A2779D212EC
:109B2F00EDD822E4FD7F80FE12D8922212E3D1906D
:069B3F0027D1EFF0F42233
:10A74F00901801E09027CFF0901810E09027D0F0EC
:10A75F00C20C9025D612B7C5E4FAF9F8EF2401FF21
:10A76F00EA3EFEE93DFDE83CFC9025D61288479075
:10A77F0027D0E0FF90257530E307E4F0A304F080C5
:10A78F0006E4F0A37402F0EF90257730E407E4F0CD
:10A79F00A304F08006E4F0A37402F07F0112DE7CC4
:10A7AF00902573EEF0A3EFF012EAC4AC06AD07E408
:10A7BF0012843B797A784412B7ED90257D12884741
:10A7CF00E4FF12A3C99025811288477F0112A3C904
:10A7DF009025851288479024EBE0B401167F021272
:10A7EF00A3C99025891288477F0312A3C990258D8D
:10A7FF00128847902569E004F07006902568E00400
:10A80F00F0902568E07004A3E0640A700690256854
:10A81F00F0A3F07F807E0012E3D19027D1EFF054A8
:10A82F0007F07F847E0012E3D19027D2EFF0540718
:10A83F00F09027D0E020E716A3E064026010902587
:10A84F0016E04401F09025ABE04401F0800790251D
:10A85F0016E054FEF09027CFE0FD20E2189027D1AC
:10A86F00E064016010902516E04402F09025ABE003
:10A87F004402F08007902516E054FDF0902516E075
:10A88F0030E00F30E10C4440F09025ABE04440F055
:10A89F008007902516E054BFF012B9827066ED2044
:10A8AF00E3189027D2E064026010902516E044046C
:10A8BF00F09025ABE04404F08007902516E054FBA0
:10A8CF00F09027CFE020E4189027D2E064016010C9
:10A8DF00902516E04408F09025ABE04408F080077F
:10A8EF00902516E054F7F0902516E030E20F30E394
:10A8FF000C4480F09025ABE04480F0800790251643
:10A90F00E0547FF0D3902574E09455902573E06464
:10A91F00809480902516E0400C4410F09025ABE019
:10A92F004410F0800354EFF0E4FFFE7D507C419023
:10A93F00257D12B7B61283C960025012E4FFFE7D67
:10A94F00307C4190257D12B7B61283C950109025E7
:10A95F0016E04420F09025ABE04420F080079025CE
:10A96F0016E054DFF09027D1E09025177006E054E1
:10A97F00FEF0800BE04401F09025B4E04401F0902C
:10A98F0027D2E07009902517E054FDF0800E902536
:10A99F00B4E04402F0902517E04402F07F347E01CA
:10A9AF0012E3D1AE07902516E05EF09025ABE05E86
:10A9BF00F07F357E0112E3D1AE07902517E05EF0F0
:10A9CF009025B4E05EF012C7A6901804E09027CE51
:10A9DF00F07F367E0112E3D1902516E05F700E7F77
:10A9EF00377E0112E3D1902517E05F60099027CEE3
:10A9FF00E04408F080079027CEE054F7F09027D17D
:10AA0F00E07004A3E0600B901804E09027CEF06490
:0AAA1F0008F09027CEE0901804F034
:01AA2900220A
:10EBC600901802E4F090180674FFF0901803E4F031
:0CEBD60090180774E3F0901814E4F0228B
:09EDC6005389F0E4F58CF58A2272
:10ED2C00902594EFF0C20C9025CDF0D28CD2A92274
:10D6C6009027CE12B965740FF09027D0E0FEA3D351
:10D6D60012B90A402C12E3D1EF60169027CE12B889
:10D6E600FAEFF09027CFE004F070069027CEE00422
:10D6F600F09027D1E024FFF09027D0E034FFF080AF
:10D70600C89027CE12B90650089027CE12B8C58009
:0FD71600F0746A2F12B8FEE4F07B017A25796A6D
:01D7250022E1
:10D53B009027CE12B9657407F09027D0E0FEA3E0D8
:10D54B00FFC3EE64809480402C12E3D1EF60169001
:10D55B0027CE12B8FAEFF09027CFE004F0700690C8
:10D56B0027CEE004F09027D1E024FFF09027D0E005
:10D57B0034FFF080C49027CE12B90650089027CE06
:10D58B0012B8C580F0746A2F12B8FEE4F07B017AF2
:03D59B0025796A85
:01D59E00226A
:05EDEC007F007E400FD6
:01EDF10022FF
:10ECD100EF600F7E9ADEFE7E9ADEFE7E9ADEFE1FDA
:02ECE10080EEC3
:01ECE300220E
:0EBB12009027E1EEF0A3EFF0A3EDF0A3EBF02F
:10BB20009027E1E0FCA3E0FDEC12B7E69027F112CC
:10BB300088477F007E007D207C4112BC879027E5EE
:10BB40001288479027E3E064017042A3E07012A3DB
:10BB500012B7C59025A712B7B61282239024EC80A5
:10BB6000129027E512B7C59025B912B7B6128223F5
:10BB700090250212B7B612B88D12B7AB12B851C0E9
:10BB800004C005C006C0079024FC02BC629027E3F5
:10BB9000E064027042A3E07012A312B7C59025B012
:10BBA00012B7B61282239024F480129027E512B7C0
:10BBB000C59025C112B7B612822390250C12B7B6D4
:10BBC00012B88D12B7AB12B851C004C005C006C080
:10BBD0000790250002BC629027E3E064047042A352
:10BBE000E07012A312B7C59025AC12B7B61282232B
:10BBF0009024F080129027E512B7C59025BD12B7AA
:10BC0000B612822390250812B7B612B88D12B7ABC0
:10BC100012B851C004C005C006C0079024FE02BC83
:10BC2000629027E4E07012A312B7C59025B512B751
:10BC3000B61282239024F880129027E512B7C5909F
:10BC400025C512B7B612822390251012B7B612B8C6
:10BC50008D12B7AB12B851C004C005C006C0079022
:10BC60002506E0FCA3E0FDEC12843BD003D002D01B
:10BC700001D00012B88D9027E912B7C512847490D4
:07BC800027E3E0FD02CF48BD
:0EED7A0012BE1DE4FBFA79207841128223229A
:10EAC4007E007D007C007F0412E4B5AC06AD07E453
:10EAD40012843B7B647A3B79BF7840128223128490
:01EAE40074BD
:01EAE500220E
:06A3C9009027D5EFF0FD26
:10A3CF009027E57401F012B845ED600302A483E015
:10A3DF0012A6C212B9149025CEEEF0A3EFF090247E
:10A3EF00D012B896400812B845442012B8A112A74F
:10A3FF0005700B12B91D9024D6CFF0A3EFF0902566
:10A40F009512B7C512A6D5400D9027E5E0FDE4FFE4
:10A41F0012B3B602A45490259512B7B6C000C0016E
:10A42F00C002C00312B7FE74182FF582742512B73D
:10A43F00D1D003D002D001D00012813290259512D5
:10A44F00B7F312B81790259512B7C512B8AC7012A2
:10A45F009024EC12B7B612B7C212812E9025A70224
:10A46F00A68490250212B7B612B7C212812E90257C
:10A47F00B902A6849027D5E06401600302A531904C
:10A48F0027E4E0444012A6C212B9149025D0EEF092
:10A49F00A3EFF09024D412B896400812B845446048
:10A4AF0012B8A112A705700B12B91D9024D8CFF0C6
:10A4BF00A3EFF090259F12B7C512A6D540087F01D4
:10A4CF0012A74602A50390259F12B7B6C000C00180
:10A4DF00C002C00312B7FE12B92512B7D1D003D0F4
:10A4EF0002D001D00012813290259F12B7F312B91A
:10A4FF002512B81E90259F12B7C512B8AC701190D7
:10A50F0024F412B7B612B7C212812E9025B0800F65
:10A51F0090250C12B7B612B7C212812E9025C10228
:10A52F00A6849027D5E06402600302A5DF9027E49C
:10A53F00E0448012A6F212B9149025D2EEF0A3EFE8
:10A54F00F09024D212B896400812B84544A012B821
:10A55F00A112A734700B12B91D9024DACFF0A3EF1C
:10A56F00F090259B12B7C512A71740087F0212A7BC
:10A57F004602A5B190259B12B7B6C000C001C0021C
:10A58F00C00312B7FE12B92D12B7D1D003D002D02B
:10A59F0001D00012813290259B12B7F312B92D1200
:10A5AF00B81E90259B12B7C512B8AC70119024F04D
:10A5BF0012B7B612B7C212812E9025AC800F90251C
:10A5CF000812B7B612B7C212812E9025BD02A6840B
:10A5DF009027E4E044C012A6F212B9149025D4EEED
:10A5EF00F0A3EFF09024DE12B896400812B845445D
:10A5FF00E012B8A112A734700B12B91D9024DCCF52
:10A60F00F0A3EFF09025A312B7C512A717400D9036
:10A61F0027E5E0FD7F0312B3B602A6599025A312DA
:10A62F00B7B6C000C001C002C00312B7FE12B935E1
:10A63F0012B7D1D003D002D001D0001281329025B1
:10A64F00A312B7F312B93512B81E9025A312B7C5CE
:10A65F0012B8AC70119024F812B7B612B7C21281AB
:10A66F002E9025B5800F90251012B7B612B7C212D3
:10A67F00812E9025C512B7B612832C9027D612883B
:10A68F00479027D612B7C512ED7A9027DE1288476A
:10A69F00E4FFFE7DB07CC19027DE12B7B61283C9EE
:10A6AF00500A9027DE128853C1B000009027DE12A7
:02A6BF00B7C51D
:10A6C10022F0901805F0E4FF12E4B59027E2EEF0D5
:10A6D100A3EFF022128474C39027E3E09FFF902739
:10A6E100E2E09EFE12ED1AD3EF9446EE6480948070
:10A6F10022F0901805F0E4FF12E4B59027E2EEF0A5
:10A70100A3EFF022E4FF12E4B59027E2EEF0A3EF0D
:10A71100F09027E5E022128474C39027E3E09FFFC5
:10A721009027E2E09EFE12ED1AD3EF9446EE64808C
:10A73100948022E4FF12E4B59027E2EEF0A3EFF05B
:0EA741009027E5E0229027E5E0FD12B3B62256
:0BB3B6009027E7EDF09027E6EFF0FD98
:10B3C100901805E09027E8F0541FF0ED7074902577
:10B3D10095128853000000009027E7E07007A3E072
:10B3E1004420F080059027E8E0F012B83512B5AF9F
:10B3F1009027EAE09027E912B80512B81790259531
:10B4010012B7B6C000C001C002C00312B827741839
:10B411002FF582742512B877D003D002D001D00065
:10B4210012813290259512B8F0700312B95E12B8EC
:10B431005E40BA90259512B7C512B7E990259502DD
:10B44100B5949027E6E06401706B90259F128853B4
:10B45100000000009027E7E07007A3E04460F0805F
:10B46100079027E8E04440F012B83512B59812B9B8
:10B471002512B81E90259F12B7B6C000C001C002A8
:10B48100C00312B82712B92512B877D003D002D061
:10B4910001D00012813290259F12B8F0700312B9C9
:10B4A1005E12B85E40C590259F12B7C512B7E990EC
:10B4B100259F02B5949027E6E06402706B90259B6E
:10B4C100128853000000009027E7E07007A3E044D2
:10B4D100A0F080079027E8E04480F012B83512B55B
:10B4E1009812B92D12B81E90259B12B7B6C000C094
:10B4F10001C002C00312B82712B92D12B877D003C8
:10B50100D002D001D00012813290259B12B8F07088
:10B511000312B95E12B85E40C590259B12B7C512E1
:10B52100B7E990259B02B5949025A312885300009A
:10B5310000009027E7E07007A3E044E0F080079067
:10B5410027E8E044C0F012B83512B5AF12B827129F
:10B55100B93512B81E9025A312B7B6C000C001C0FC
:10B5610002C00312B82712B93512B877D003D0023E
:10B57100D001D0001281329025A312B8F0700312CD
:10B58100B95E12B85E40C29025A312B7C512B7E9E1
:06B591009025A31288477B
:10B5970022E4FF12E4B5AC06AD079027EAE025E008
:10B5A700FF9027E9E033FE22E4FF12E4B5AC06ADD5
:02B5B700072269
:05CC40009027E1EFF078
:10CC45007FDC7E0012E3D19027E3EFF07FE07E00EA
:10CC550012E3D1AC079027E1E0FE701D12B93DA3A8
:10CC6500E09027E27009E054FDF04401F08007E010
:10CC750054FEF04402F012B946EE6401701E90189D
:10CC850005E0FF9027E3E07008EF54FD4401FF80C5
:10CC950006EF54FE4402FF901805EFF09027E1E0FF
:10CCA5006402701C12B93DEC7009E054DFF04410C9
:10CCB500F0800A9027E2E054EFF04420F012B946E4
:10CCC5009027E1E06403701C12B93DEC7009E05453
:10CCD5007FF04440F0800A9027E2E054BFF04480A2
:04CCE500F012B9464A
:01CCE9002228
:10E2B100901804E0FEA3E0FDEF7008EE4402440173
:10E2C100FE8021EFB4010BED44024401901805F0EA
:10E2D1008012EFB40208EE44204410FE8006EE44A2
:09E2E100804440FE901804EEF0A8
:01E2EA002211
:10C14600EF70247FDCFE12E3D19027D9EFF07F80D9
:10C1560012C2307445F09027DC7401F0E4A3F0902D
:10C1660027DB7480F080247FE07E0012E3D19027E5
:10C17600D9EFF07F8412C2307449F09027DC740442
:10C18600F0A37402F09027DB7484F09027D9E0B412
:10C196000104A3E004F09027DEE0702512B96D12C9
:10C1A600C21F12C23E9027DDE0FF12CC4012B96DCD
:10C1B600240212C21F25E012C23E12C20EE4FD8006
:10C1C600439027DEE0B4010F9027DDE0FF12E2B1D5
:10C1D60012C20E7D01802D9027DEE0640270289049
:10C1E60027DDE004FF12E2B19027DCE0FDE4FFFE6C
:10C1F60012CF489027DDE0FF12CC409027DBE0FF0E
:07C206007E007D0212D892B8
:10C20D00229027DDE004FF12CC409027DBE0FF7E7B
:10C21D000022FD12EDE69027DFE0FEA3E0FF902760
:10C22D00DCE0227E0012E3D19027DEEFF09027DADA
:0BC23D0022FD9027D9E0FB12BB12226B
:10C7A60012B94F30E006E04404F08004E054FBF098
:10C7B600ED9024E030E106E04408F08004E054F710
:10C7C600F012B94F30E206E04410F08004E054EF76
:10C7D600F0ED9024E030E306E04420F08004E054DD
:10C7E600DFF0902516E0FD9024E130E406E04401F8
:10C7F600F08004E054FEF0ED9024E130E506E044DC
:10C8060002F08004E054FDF012B94F30E606E04431
:10C8160001F08004E054FEF0ED9024E030E706E0FD
:10C826004402F08004E054FDF0902517E0FD9024CA
:10C83600E030E006E04440F08004E054BFF0ED90C4
:10C8460024E030E106E04480F08004E0547FF0907C
:10C856002514E0FF9024E0E0FEEF4E902514F0A3AF
:0EC86600E0FF9024E1E0FEEF4E902515F02259
:01EE0C0022E3
:07EDDF00D2EED2EDD2EF22CB
:03EC190012EDDF1A
:10EC1C00C2EE30EF1130ED0ED2EEC2EF12EE0CC29E
:08EC2C00ED12EE0CC322D3220D
:0CEDA300D2EEC2EFD2ED12EE0CD2EF2245
:0EED8800D2EEA20092EFD2ED12EE0CC2ED22FE
:0FED4C00C2EED2ED12EE0CC2EDA2EC9200A200CC
:01ED5B002295
:10EBA9007E08EF30E704D2008002C20012ED88EF40
:0CEBB90025E0FFDEED12ED4C500122C300
:01EBC500222D
:10EB8B007F08E4FE9027D3F0EE25E0FE12ED4C500B
:0DEB9B00034401FEDFF2D20012ED88AF0648
:01EBA800224A
:02DE7C00AD07F0
:10DE7E0075E8A8ED25E04490FD12EC195002801FC4
:10DE8E00AF0512EBA950028016E4FF12EBA912ECBB
:10DE9E00195002800AED4401FFFD12EBA950057ED8
:0FDEAE00007FFF2212EB8B12EDA3EF3395E0FE06
:01DEBD002242
:05CF48009027EDEDF063
:10CF4D00BD01059024E380199027EDE0FDB40205A5
:10CF5D009024E5800CEDB404059024E78003902423
:10CF6D00E9EEF0A3EFF0AD07AC06E412843B7B17BE
:10CF7D007AB779D1783F128223128474D3EF94FF5C
:10CF8D00EE940F9027EF400B74FFF09027EE740F87
:10CF9D00F0800BEFF0EE7E00540F9027EEF090270F
:10CFAD00EEE04420F012EDDF12EC1C7F1812EBA91D
:10CFBD009027EDE0FF12EBA9A3E0FF12EBA9A3E090
:0BCFCD00FF12EBA912EDA3D2EFD2ED92
:01CFD8002236
:109FC800E0F8A3E0F9A3E0FAA3E0A3FBE0FCA3E038
:109FD800FDA3E0FEA3E0FF229027EE1287E1902781
:109FE800EDE0FBA3E0FAA3E0F912871FFF9027F04A
:109FF800E0FBA3E0FAA3E0F9EF1287659027F1E40C
:10A0080075F0011287E19027EE74FFF5F01287E1F1
:10A018009027EDE0FBA3E0FAA3E0F912871F902751
:10A02800F0FFE0FBA3E0FAA3E0F922E4FFFE7CC125
:10A038009027CFE0F8A3E0F9A3E0FAA3E0FB22120F
:10A0480084749027CFEEF0A3EFF09027DD7401F031
:10A05800A32290232EF0E4A3F0A3F0A3F0A3F0A38F
:10A06800F0A3F022C39027D8E094149027D7E09467
:10A0780000229027D0E0FEA3E0FFA3E0FCA3E0FDD0
:10A0880090242D75F003EF128895EE75F003A42542
:10A0980083F583221281329026E81288479027D8C8
:10A0A800E004F022902769F09027F07401F0A322D1
:10A0B800901805F0E49027D7F0A3F0229027D674E3
:10A0C800FFF5F01287F7FA746625F0F582742722F7
:10A0D8009027D2E0FEA3E0FF7C007D0C128799E96F
:10A0E8002FF9EA3EFA229027D2E0F8A3E0F5828819
:10A0F80083740C1288841288C189828A8302891B1E
:10A10800E4FBFA79A0784102832C90276E04F09042
:10A1180027F0F0A37427F0A3746FF07B01227484F6
:10A12800902769F090270AE0227427F0A3746EF054
:10A138007B012274292FF58274233EF583E4F09085
:10A1480027CFE004F0221288C190000A128738FF56
:10A15800E49027D0F0A3EFF0229027D7E004F02274
:10A168007427F0A37473F07B01227427F0A3747032
:10A17800F07B01229027D1E025E0FF9027D0E03343
:10A18800FE74BD2FF58274223EF583E0FEA3E02421
:10A19800FFFFEE34FF227A2779CF7B019027D4E0A6
:10A1A800221281329026F8128847901805229027AB
:10A1B800CEE0FEA3E0FFD3942EEE64809480227458
:10A1C80027F0A37472F07B012290270AE090276E93
:10A1D800F090270BE090276FF022AD07741A2DF549
:10A1E80082E43428F583E0FC2274022FF582E434FB
:10A1F80027F583229027CFE02401FD9027CEE03475
:10A2080000FCC3EF9DEC6480F8EE64809822A3F014
:10A218007B017A27790A227427F0A37474F07B01F2
:10A22800227427F0A37476F07B01227427F0A374BC
:10A2380078F07B01227427F0A3747AF07B012274F2
:10A2480027F0A3747EF07B0122E0FEA3E0FFC39415
:10A25800F9EE6480947F22748F902769F090270A22
:10A26800E022E0FCA3E0902782FDECF0EDA3F022D1
:10A27800C374929FF074099E229027D674FFF5F05C
:10A288001287F7FC227427F0A37471F07B01221265
:10A2980088479027CEE022901805F09026F8229063
:10A2A80027CEE0FEA3E0FF4E22E0FEA3E090242D9F
:10A2B80075F003229027EEE475F0010287E1E0FED5
:10A2C800A3E0FFC394ECEE6480947F229024E2E044
:10A2D800902329F02290276E7401F0227B019027A9
:10A2E800D0E0229027CEE06401229027CEE06402DD
:10A2F800221281329026E4221281329026F4221210
:10A3080088479027E1221288479027E5221288473C
:10A318009027E922E0FEA3E0FF7C007DFF0287ABE7
:10A328009027CEE004F022128223A804A905AA06E9
:10A33800AB0722FEEB9FEE6480F8EA6480982274F3
:10A34800032FF582E43427F583E022547FFFE4F0FD
:10A35800A3EFF022F582E43427F58322C2AFE4F5B7
:10A36800A8F5A975C021229027697483F022902747
:10A37800697484F0229025ABE0FF902516E02274E2
:10A3880027F0A37475F07B01227427F0A37477F08B
:10A398007B0122D3EF9406EE6480948022902705F7
:10A3A800E02405FFE433229000030287389027CE8B
:10A3B800E4F0A37428F022E0547FF0A3E0547FF087
:01A3C8002272
:10E4ED009027DAEBF0A3EAF0A3E9F09027DA12A077
:10E4FD002A9000011287389027DD12A029EF12878C
:10E50D00659027DA12A02A12871FFF9027DD12A02F
:08E51D002A900001EF0287774C
:10E8C6009027EDEBF0A3EAF0A3E9F012A2BC12A2A6
:10E8D600BCE475F001129FE0EF1287659027F112F4
:0DE8E600A2BF74FFF5F0129FE0EF028765FE
:10E59500438920AB07AA06A905A804E4FF7EE1FD8F
:10E5A500FC12DDB2EFF404F58D758850759850E4D2
:10E5B500F5B843878075CDFE75CCC075CBFE75CAA1
:07E5C500C0D20F75C804224B
:0FED5C0012A36F90276DEFF090276A74C3F02217
:04EDF20012A36F22D7
:09EDCF0012A376E490276EF022F5
:10EBE200748912A0AC12A1317A25797D12E8C6127D
:0CEBF200A05212A1C77A25797302E4ED4D
:0CEDAF0012A376902516E090276EF0224B
:10D2C500748B12A12830E00312ECF612A37DFD4FFA
:10D2D5009025ABF0FC9025B4E0FF902517E0FEEF1C
:10D2E5004E9025B4F090276EEDF0A3ECF07F347EE0
:10D2F5000112E3D1902770EFF07F367E0112E3D162
:10D30500902771EFF0902517E0902772F09025B4E3
:10D31500E0902773F07F357E0112E3D1902774EFFB
:0ED32500F07F377E0112E3D1902775EFF022E2
:10DC9E00748712A261FD7F347E0112D89290270BF9
:10DCAE007F3612DCDB90270C7F3512DCDB90270DE4
:10DCBE00E0FD7F377E0112D89212A1D190270CE0A1
:10DCCE00902770F090270DE0902771F022E0FD7EF6
:05DCDE000112D89222A2
:10E83C00902769749BF07B017A27796E12D3339001
:10E84C0027CE12A26A12EDEC9027CEEEF0A3EFF0D9
:0DE85C009027CEE0FCA3E090278412A2716B
:01E86900228C
:10D46E0090276974A5F07F7A7E0212E3D190276E21
:10D47E00EFF07F7B7E0212E3D190276FEFF07F30CB
:10D48E007E0212CD84E4FFFE12A1E274702DF582AD
:10D49E00E43427F583ECF00FBF00010EEF64104E5D
:10D4AE0070E67F407E0212CD84E4FEFF12A1E2748C
:10D4BE00802DF582E43427F583ECF00FBF00010ECA
:06D4CE00EF64104E70E651
:01D4D4002235
:10E7AA009027697493F090270AE0FEA3E0FDEDFF3D
:10E7BA0012CD84E4FFFE12A1E2746E2DF582E434D8
:10E7CA0027F583ECF00FBF00010EEF64104E70E6E0
:01E7DA00221C
:10EC4E0012A126B4010312ECF612A37DFEEF4E9034
:08EC5E0025ABF090276EF022B7
:10E63A00902769749B12A21712C9407B017A277925
:10E64A006E12D3339027CE12A26A12EDEC9027CE27
:10E65A00EEF0A3EFF09027CEE0FCA3E0FDEC9027CC
:05E66A0084F0EDA3F0B7
:01E66F002288
:10E1450012A1269027CEF030E406A37401F08005D5
:10E15500E49027CFF0EF9027CF700DE0FD7FDC7EB8
:10E165000012D892E4FF800BE0FD7FE07E0012D81C
:0EE17500927F0112C1469027CEE090276EF0F7
:01E183002279
:10C60100E49027CEF0A3F0902769748DF0EF70517C
:10C6110012A1127A25798112E8C612A0B012A1687E
:10C621007A25798512E8C67FDC7E0012E3D1BF014D
:10C63100089027CE7410F08005E49027CEF0902565
:10C6410075E07004A3E064019027CE7006E0440118
:10C65100F08004E04402F09027CEE04480F002C66E
:10C66100CE9024EBE0B4010512A2DD8005E4902711
:10C671006EF012A0B012A11C7A25798912E8C612B7
:10C68100A0B012A1687A25798D12E8C67FE07E00FC
:10C6910012E3D1BF01089027CE7410F08005E49019
:10C6A10027CEF0902577E07004A3E064019027CEB7
:10C6B1007006E04401F08004E04402F09027CEE0EF
:10C6C1004480F0902777F044809027CEF09027CED9
:05C6D100E0902777F066
:01C6D6002241
:10CA0B0012A25F9027CEF030E00F7F8412CAC77F4F
:10CA1B00E012CAB97449F0800D7F8012CAC77FDC5F
:10CA2B0012CAB97445F07A2779D212A2E4FD12ED3D
:10CA3B00E67A2779D412A2E404FD12EDE67B017AA3
:10CA4B002779D69027D0E02402FD12EDE67B017A00
:10CA5B002779D89027D0E02403FD12EDE69027CE5E
:10CA6B00E090276EF09027CFE090276FF09027D1C2
:10CA7B00E090277012A05112A28D7A2779D212E47E
:10CA8B00ED12A05212A1687A2779D412E4ED12A00C
:10CA9B005212A3877A2779D612E4ED12A05212A371
:0DCAAB00917A2779D812E4EDE4902779F014
:10CAB800227E0012E3D19027D1EFF09027D0227E7A
:0ACAC8000012E3D19027CFEFF02217
:10B9890012A25F9027D6F0547FF090270BE0902702
:10B99900D7F05403F090270CE09027D8F054011207
:10B9A900A0517427F0A374CEF07B017A27790D1288
:10B9B900E4ED12A0527427F0A374D0F07B017A272A
:10B9C900790F12E4ED12A0527427F0A374D2F07B20
:10B9D900017A27791112E4ED12A0527427F0A374A9
:10B9E900D4F07B017A27791312E4ED9027D6E0FF92
:10B9F90030E04D30E3057D4912BAEA9027D6E030B0
:10BA0900E4057D4A12BAF49027D6E030E5057D4B6E
:10BA190012BAFE9027D6E030E6057D4C12BB08909D
:10BA290027D6E030E10AA3E0FD7F847E0012D89298
:10BA39009027D6E030E2057FE012BADF7F01804F20
:10BA49009027D6E030E3057D4512BAEA9027D6E083
:10BA590030E4057D4612BAF49027D6E030E5057D3D
:10BA69004712BAFE9027D6E030E6057D4812BB089A
:10BA79009027D6E030E10AA3E0FD7F807E0012D84E
:10BA8900929027D6E030E2057FDC12BADFE4FF129C
:10BA9900C14612A1D190270CE090277012A0511233
:10BAA900A28D7A2779CE12E4ED12A05212A1687AFA
:10BAB9002779D012E4ED12A05212A3877A2779D2FE
:10BAC90012E4ED12A05212A3917A2779D412E4ED6F
:05BAD900E4902779F064
:10BADE00229027D8E0FD7E0012D892227B017A2791
:10BAEE0079CE12EDD8227B017A2779D012EDD822A9
:10BAFE007B017A2779D212EDD8227B017A2779D46D
:04BB0E0012EDD8223A
:10DBC000902769748CF0EF701612A1127A2579B93A
:10DBD00012E8C612A0B012A1687A2579C1802890F7
:10DBE00024EBE0B4010512A2DD8005E490276EF07D
:10DBF00012A0B012A11C7A2579BD12E8C612A0B0FD
:0BDC000012A1687A2579C512E8C6223F
:10CB8F009027697488F0EF702B90276E04F07FDC8C
:10CB9F0012CC3370107D4512EDE612A05212CC0E5E
:10CBAF007D4702CBFD7D4612EDE612A05212CC0E50
:10CBBF007D48803A9024EBE0B4010512A2DD800598
:10CBCF00E490276EF07FE012CC3370127D4912EDA6
:10CBDF00E612A05212A11C12CC257D4B80107D4A6B
:10CBEF0012EDE612A05212A11C12CC257D4C12EDB3
:0ECBFF00E612A05212A28D7A2779CE12E4ED32
:10CC0D00227427F0A3746FF07B017A2779CE12E49A
:10CC1D00ED7B017A2779CE227A2779CE12E4ED7B4E
:10CC2D00017A2779CE227E0012E3D1EF7B017A279C
:03CC3D0079CE228B
:05AF81009027CEEFF067
:10AF8600902769749BF0EF7065FF12B18E9025953E
:10AF9600129FD412B16412A1727A2579CE12E4ED11
:10AFA60012A05212A1C77A2479D612E4ED12A05249
:10AFB60012A21F7A2479D012E4ED12A05212A2290D
:10AFC6007A2479E312E4ED12A05212A2337A24799C
:10AFD600FC12E4ED12A0B012A23D7A2579B912E86E
:10AFE600C612A0B012A2477A2579A702B14D9027C2
:10AFF600CEE0640170667F0112B18E90259F129F8C
:10B00600D412B16412A1727A2579D012E4ED12A09D
:10B016005212A1C77A2479D812E4ED12A05212A2D4
:10B026001F7A2479D412E4ED12A05212A2297A24AE
:10B0360079E512E4ED12A05212A2337A25790012B4
:10B04600E4ED12A0B012A23D7A2579C112E8C6122B
:10B05600A0B012A2477A2579B002B14D9027CEE072
:10B06600640270737F0212B19890259B129FD412CE
:10B07600A04712A1317A2779CF12E4ED12A052121D
:10B08600A1727A2579D212E4ED12A05212A1C77AE2
:10B096002479DA12E4ED12A05212A21F7A2479D290
:10B0A60012E4ED12A05212A2297A2479E712E4EDF5
:10B0B60012A05212A2337A2479FE12E4ED12A0B045
:10B0C60012A23D7A2579BD12E8C612A0B012A24797
:10B0D6007A2579AC02B14D7F0312B1989025A3125F
:10B0E6009FD412A04712A1317A2779CF12E4ED122C
:10B0F600A05212A1727A2579D412E4ED12A052124E
:10B10600A1C77A2479DC12E4ED12A05212A21F7AAA
:10B116002479DE12E4ED12A05212A2297A2479E9EA
:10B1260012E4ED12A05212A2337A25790612E4ED4A
:10B1360012A0B012A23D7A2579C512E8C612A0B0B7
:10B1460012A2477A2579B512E8C612A0B07427F084
:0DB15600A37482F07B017A2779D112E8C63C
:10B16300221284749027CFEEF0A3EFF09027DD74C2
:10B1730001F0A37427F0A3746EF07B017A2779CFD3
:10B1830012E4ED9027DD7401F0A32212A3C99027E6
:0FB19300D11288472212A3C99027D112884722D0
:05C248009027CEEFF08D
:10C24D00902769748712A0517427F074CF12A2162B
:10C25D0012E4ED12A0527427F0A374D1F07B017A91
:10C26D0027790C12E4ED9027CEE09027D470077457
:10C27D0045F07FDC80057449F07FE07E0012E3D14C
:10C28D009027D3EFF09027D3E06401703A9027CF39
:10C29D0012A251400512A39B400812A19E04FD124B
:10C2AD00EDE69027D112A251400512A39B400D7AC5
:10C2BD002779D112A1A22403FD12EDE612A19E044D
:10C2CD0012C3372403803D9027CF12A2C64007D357
:10C2DD00EF12A257400712A19EFD12EDE69027D155
:10C2ED0012A2C64007D3EF12A25740107B017A2746
:10C2FD0079D19027D4E02402FD12EDE612A19E1211
:10C30D00C3372402FD12EDD89027CEE0FF12C146AF
:10C31D0012A05212A1317A2779CF12E4ED12A05258
:0AC32D0012A1727A2779D102E4ED23
:0FC33700FD12EDD87B017A2779D19027D4E0222F
:058A67009027CEEFF0A6
:108A6C009027D912885300000000901805E0541F7D
:108A7C00FF748712A0AC7427F074CF12A21612E800
:108A8C00C6E4FBFA792078419027CF129FD4128349
:108A9C002C9027F11288477F007E007D207C4112AC
:108AAC00BC879027D31288477D9812A0331283C9B4
:108ABC0060025003028BBB7D8812A0331283C94025
:108ACC0003028BBB9026E81288530000000090270D
:108ADC00D3129FD49026E012A297702E742012A06D
:108AEC00B89026E812A03BC000C001C002C003121F
:108AFC00906FD003D002D001D00012A09C70031252
:108B0C00A16112A06C40DA028BAC12A2EB702E7435
:108B1C006312A0B89026E812A03BC000C001C002AE
:108B2C00C00312906FD003D002D001D00012A09CD1
:108B3C00700312A16112A06C40DA028BAC12A2F28B
:108B4C00703090180574A012A0BB9026E812A03BC0
:108B5C00C000C001C002C00312907DD003D002D06F
:108B6C0001D00012A09C700312A16112A06C40DA1B
:108B7C00802E90180574E012A0BB9026E812A03B42
:108B8C00C000C001C002C00312907DD003D002D03F
:108B9C0001D00012A09C700312A16112A06C40DAEB
:108BAC009026E8129FD412A1089026E8128847E478
:108BBC00FFFEFD12A0361283C960025003028D6CB9
:108BCC00E4FFFE7DC07CC012A0381283C9400302B2
:108BDC008D6C9026F8128853000000009026E41249
:108BEC008853000000009027D3129FD49026F012D7
:108BFC00A297704F12A0BDE412A29F12A03BC0001E
:108C0C00C001C002C00312908BD003D002D001D09F
:108C1C000012A1A97420F09026E412A03BC000C061
:108C2C0001C002C00312908BD003D002D001D0003F
:108C3C0012A2F912A0A2700312A16112A06C40B78B
:108C4C00028D4E12A2EB705012A0BD744312A29F63
:108C5C0012A03BC000C001C002C003129099D00307
:108C6C00D002D001D00012A1A97463F09026E412B6
:108C7C00A03BC000C001C002C003129099D003D029
:108C8C0002D001D00012A2F912A0A2700312A161AD
:108C9C0012A06C40B6028D4E12A2F2705412A0BDFE
:108CAC009018057480F09026F812A03BC000C0010B
:108CBC00C002C0031290A7D003D002D001D0001282
:108CCC00A1A974A0F09026E412A03BC000C001C082
:108CDC0002C0031290A7D003D002D001D00012A280
:108CEC00F912A0A2700312A16112A06C40B2028D05
:108CFC004E12A0BC90180574C0F09026F812A03B40
:108D0C00C000C001C002C0031290C1D003D002D079
:108D1C0001D00012A1A974E0F09026E412A03BC08F
:108D2C0000C001C002C0031290C1D003D002D00118
:108D3C00D00012A2F912A0A2700312A16112A06CB1
:108D4C0040B29026F8129FD412A1089026F81288EF
:108D5C00479026E4129FD412A1089026E4028EAC10
:108D6C00E4FFFE7D807C3F12A0381283C960025064
:108D7C0012E4FFFE7D407C4012A0381283C94003F0
:108D8C00028EB19026F4128853000000009027D375
:108D9C00129FD49026EC12A297703F901805F012F7
:108DAC00A0BD9026F412A03BC000C001C002C003BD
:108DBC001290DBD003D002D001D00012A30012A07D
:108DCC00A2700312A16112A06C40D79026F4129FDE
:108DDC00D412A1089026F4028EAC12A2EB70409033
:108DEC001805744312A0BB9026F412A03BC000C01F
:108DFC0001C002C0031290DBD003D002D001D0001E
:108E0C0012A30012A0A2700312A16112A06C40D791
:108E1C009026F4129FD412A1089026F4028EAC1264
:108E2C00A2F2703F901805748012A0BB9026F41229
:108E3C00A03BC000C001C002C00312910DD003D0F2
:108E4C0002D001D00012A30012A0A2700312A161E3
:108E5C0012A06C40D79026F4129FD412A108902631
:108E6C00F4803D90180574C012A0BB9026F412A09B
:108E7C003BC000C001C002C00312910DD003D00250
:108E8C00D001D00012A30012A0A2700312A1611293
:108E9C00A06C40D79026F4129FD412A1089026F40F
:108EAC00128847800D9027CF1288530000000002D3
:108EBC0090619026EC129FC812812EC004C005C090
:108ECC0006C0079026F4129FC812812ED003D00240
:108EDC00D001D00012832C9027DD1288479026F009
:108EEC00129FD49027DD12A03B12A32F9026F812CC
:108EFC009FD412812E9027E11288479026F0E0F83B
:108F0C00A3E0F9A3E0FAA3E09026E0129FD312812C
:108F1C002EC004C005C006C0079026E4129FC812DC
:108F2C00812ED003D002D001D00012832C9027E5E3
:108F3C001288479026E0129FD49027E512A03B128E
:108F4C00A32F9026E8129FD412812E9027E912A20B
:108F5C0097703F9027DD129FD49025B912A307126A
:108F6C009FD490250212A30E129FD49025A712A372
:108F7C0015129FD49024EC1288477D261290B57D53
:108F8C002A1290F57D2E1290CF7A2779E97D330243
:108F9C00905E12A2EB703F9027DD129FD49025C1FA
:108FAC0012A307129FD490250C12A30E129FD490DB
:108FBC0025B012A315129FD49024F41288477D2754
:108FCC001290B57D2B1290F57D2F1290CF7A2779C8
:108FDC00E97D3402905E12A2F29027DD703B129F65
:108FEC00D49025BD12A307129FD490250812A30E6E
:108FFC00129FD49025AC12A315129FD49024F0127A
:10900C0088477D281290E97A2779E17D2C12EC664D
:10901C007D301290FD7D358039129FD49025C5127C
:10902C00A307129FD490251012A30E129FD4902543
:10903C00B512A315129FD49024F81288477D2912DB
:10904C0090E97A2779E17D2D12EC667D321290FD44
:10905C007D3612EC6612A0B012A1317A2779CF12AC
:02906C00E8C654
:10906E0022E4FF12E4B5AC06AD07E412843B22E421
:10907E00FF12E4B5AC06AD07E412843B22E4FF1206
:10908E00E4B5AC06AD07E412843B22E4FF12E4B56E
:10909E00AC06AD07E412843B22E4FF12E4B5AC0645
:1090AE00AD07E412843B227B017A2779DD12EC6650
:1090BE007B0122E4FF12E4B5AC06AD07E412843B5B
:1090CE00227B017A2779E512EC667B0122E4FF12FE
:1090DE00E4B5AC06AD07E412843B227B017A277916
:1090EE00DD12EC667B01227A2779E112EC66227B97
:1090FE00017A2779E512EC667B017A2779E922E479
:0D910E00FF12E4B5AC06AD07E412843B226D
:02DCE300AE078A
:10DCE500902769748512A0517427F0A374CE12A2EF
:10DCF5001712E4EDEE70097D0112DD207D0280072B
:10DD05007D0412DD207D087F927E0912CF4812A086
:0BDD15005212A1317A2779CE02E4ED12
:08DD20007F927E0912CF482218
:02CAD200AE07AD
:10CAD400902769748712A0517427F0A374CE12A210
:10CAE4001712E4ED12A0527427F0A374D0F07B0166
:10CAF4007A27790C12E4EDEE703612A2A7600A9040
:10CB040024FD12A2789024FCF09027D012A2AA60EF
:10CB14000A90250112A278902500F07B017A2479ED
:10CB2400FC7D3912EDD87B017A2579007D3A803E6F
:10CB340012A2A7600FC374929F9024FFF074099E01
:10CB44009024FEF09027D012A2AA600FC374929F83
:10CB5400902507F074099E902506F07B017A2479CC
:10CB6400FE7D3B12EDD87B017A2579067D3C12EDE2
:10CB7400D812A05212A1317A2779CE12E4ED12A074
:0BCB84005212A1727A2779D002E4ED72
:10EAE60012A37612A2DD7D487F747E0212D892129E
:10EAF600D78412C51A12DC0B7FC812ECD112A3649C
:01EB060022EC
:10EC930012A36F12D78412C51A12DC0B7FC812ECB1
:04ECA300D112A36483
:01ECA700224A
:10D4D50090270AE0FD7F7A7E0212D89290270BE012
:10D4E500FD7F7B7E0212D892E49027CEF0A3F090C8
:10D4F50027CEE0FCA3E0FD2430FFEC3402FE740CE3
:10D505002DF582E43427F583E0FD12D8929027CFDC
:10D51500E004F070069027CEE004F0C39027CFE03A
:10D5250094209027CEE06480948040C312D46E90FE
:05D53500276974A5F058
:01D53A0022CE
:10ECA80012A126FEA3E0FDEDFFA3E0FD12E0859092
:04ECB800276EEFF0E4
:01ECBC002235
:10C03D00E4FA9027CE12A060FDFC902705E02401C4
:10C04D00FEE4339027D2F0A3CEF07B059027D2E00B
:10C05D00FEA3E0D39400EE64809480402C0BEBAEF5
:10C06D000270010A142402F58274273EF583E0B4B0
:10C07D00FF070DBD00010C80D39027D3E024FFF006
:10C08D009027D2E034FFF080C3902705E02401FF14
:10C09D00E433FEEF2DFFEE3C9027D2F0A3EFF0E45A
:10C0AD009027D0F0A3F0FA7B0512A3A5D312A33BE2
:10C0BD00400302C145AF0312A1F1E0F4707212A367
:10C0CD0047B4010612A1F1747EF0EB2401FEE43AAF
:10C0DD009027CEF0A3CEF09027D2E0FEA3E024046B
:10C0ED00FFE43EFE9027D0E0FCA3E0FDC3EF9DFFF3
:10C0FD00EE9CFE9027CEE0FCA3E0FDC39FEE648096
:10C10D00F8EC648098501BAF0512A347FE12A1F105
:10C11D00EEF09027CFE004F070069027CEE004F00B
:10C12D0080B59027D1E004F070069027D0E004F0A0
:08C13D000BBB00010A02C0B6B1
:01C1450022D7
:10DC5500E49027CEF0A3F07B05FA12A3A5C312A387
:10DC65003B501C74022B12A1F4E0FF9027CFE02F4C
:10DC7500F09027CEE03400F00BBB00010A80DB906A
:10DC850027CE12A31C74022B12A1F4E0B50507E4FC
:08DC9500B504037F01227F00AA
:01DC9D002264
:10CE1D00902709E01288F1CE6401CE6A10CEA518D4
:10CE2D00CE7020CE7321CE7722CE7C23CE7F24CE22
:10CE3D008225CE8626CE8B27CE8F28CE9429CE98CE
:10CE4D002ACE9C2BCEA02CCEA82DCEAB2ECE6740BD
:10CE5D00CE6D410000CEAE02EDF202EDCF02E83C08
:10CE6D0002D46E02EBE2E4FF80027F0102C60102F2
:10CE7D00EDAF02EC4EE4FF80027F0102DBC0E4FF68
:10CE8D0080027F0102CB8FE4FF800A7F0180067F45
:10CE9D000280027F0302AF8102E7AA02D2C502CA55
:07CEAD000B7F0112ED5C2276
:10CEB400902709E01288F1CF040DCF0711CF0B1290
:10CEC400CF1013CF1414CF1915CF1D16CF2117CFA0
:10CED4002518CF2A19CF2E1ACF331BCEF81CCF37E3
:10CEE4001DCF3C1ECF3F20CEFB31CEFE35CF0141BE
:10CEF4000000CF4202E63A02EAE602EC9302D4D5FD
:10CF040002ECA8E4FF80027F0102E145E4FF800215
:10CF14007F0102C248E4FF800A7F0180067F02800D
:10CF2400027F03028A67E4FF80027F0102DCE3E4FC
:10CF3400FF80027F0102CAD202DC9E02B9897F010E
:04CF440012ED5C226C
:01EE0D0022E2
:01EE0E0022E1
:10D78400E49027D0F0A3F0902769E09027CE12A36D
:10D7940053E4FBFAD39027CFE09BEA6480F8902708
:10D7A400CEE0648098401C746B2B12A35CE0FF9065
:10D7B40027D1E02FF09027D0E03400F00BBB00011C
:10D7C4000A80D19027D012A31C9027D0ECF0A3EDAF
:0CD7D400F0FFAD03746B2D12A35CEFF0AE
:01D7E0002226
:10C51A00E49027CE12A060902769E09027CE12A35C
:10C52A0053E4FFFE12A1FC5025746B2F12A35CE0AA
:10C53A00FD647E6004EDB4FF0E9027D3E004F07032
:10C54A00069027D2E004F00FBF00010E80D6902794
:10C55A00D2E0FCA3E0FD4C700302C5F89027CFE0BF
:10C56A002405FF9027CEE03400FE9027D4F0A3EFF5
:10C57A00F0ED2FFFEC3EA3F0A3EFF0E4FEFF12A1D3
:10C58A00FC506B9027D4A3E02466F582E43427F5A7
:10C59A0083E0FDB47E0F12A0C43AF5837401F01251
:10C5AA00A0C43A8016EDB4FF2712A28112A0CF3C94
:10C5BA00F583E4F012A28112A0CF3CF58374FFF058
:10C5CA009027D5E024FFF09027D4E034FFF08016BE
:10C5DA009027D412A28412A0CF3CF583E0FD12A0CA
:10C5EA00C43AF583EDF00FBF00010E02C58890270B
:06C5FA00D2E0FEA3E0FF09
:01C600002217
:10DC0B00901804E06404F0902769E0547F2405FD2C
:10DC1B00E433FCED2FFFEC3ECF2401CF34009027F3
:10DC2B0000F0A3EFF0E49026FEF0A3F0C29CC2B587
:10DC3B007F0412ECD19026FEE475F0011287F7FEFB
:09DC4B0012A0CF3EF583E0F5992B
:01DC540022AD
:10E39800902766747EF0902704E044C0902767F0C9
:10E3A800902703E04480902768F0902706E044C057
:10E3B80090276AF0A37411F0902707E090276CF07B
:09E3C800902709E090276DF02276
:10AA2A0090276974B1F0300F07C20FE490270AF03B
:10AA3A0090270AE0540314604C14700302AB1224EA
:10AA4A0002600302AC5BE49027D012A06412A2D485
:10AA5A0090242D12A02A12A3AF90232B12A05D12CC
:10AA6A00A0659027CEF0A37428F012A1B6500A125E
:10AA7A00A13B70F612A32880F112A07A12A02A1222
:10AA8A00A0EE02AC5B90270CE0FF7E00EE12A1590B
:10AA9A0090270DE0FD9027D2E4F0A3EDF012A2D4A6
:10AAAA0012A08812A02A12A0D812A3AF90232BF0CA
:10AABA009027D0E07002A3E0600890232C7401F084
:10AACA008005E490232CF09027D0E0FEA3E0FF90CD
:10AADA00232DF09027D2E0FCA3E0FD12A05A902784
:10AAEA00D0E0FA12A2B3128895EA12A09312A02A11
:10AAFA0012A0EE12A3B512A1B6400302AC5B12A1DA
:10AB0A003B70F312A32880EE90270CE012A1579015
:10AB1A00270DE0FF9027D2E4F0A3EFF090270BE097
:10AB2A009022B0F030E0339021E2E07002A3E060BE
:10AB3A000302ABF912A17CFEC39027D3E09F9027B2
:10AB4A00D2E09E4004E402ABF69027D3E004F07012
:10AB5A00069027D2E004F002ABF990270BE0FD3013
:10AB6A00E1309021E2E07002A3E0600302ABF990C9
:10AB7A0027D2E07002A3E060119027D3E024FFF00F
:10AB8A009027D2E034FFF002ABF912A17C9027D2D1
:10AB9A008040ED9027D030E23FE0FEA3E0FF90270F
:10ABAA00D4EEF0A3EFF09027D2E0FDA3E09027D6F1
:10ABBA00CDF0A3EDF012A08812A02A9027D612A0F9
:10ABCA00DB90000412A14E90000B128738FF9027E9
:10ABDA00D2E4F0A3EFF0801712A2B112A08F12A054
:10ABEA002A12A0D890000712A14EE4A3F0A3F012F3
:10ABFA00A2D49027D012A2B112A08F12A02A12A01A
:10AC0A00D812A3AFF990232BF09027D0E07002A3BB
:10AC1A00E0600890232C7401F08005E490232CF066
:10AC2A009027D0A3E090232DF09027D2A3E012A082
:10AC3A005A90232BE9F012A07A12A02A12A0EE123F
:10AC4A00A3B512A1B6500A12A13B70F612A328802E
:10AC5A00F190232C12A1D490232DE0902770F0902C
:10AC6A00232EE0902771F090232FE0902772F09026
:10AC7A002330E0902773F0902331E0902774F0900E
:10AC8A002332E0902775F0902333E0902776F090F6
:10AC9A002334E0902777F090232BE0902778F0E494
:10ACAA009027CEF0A3F09027CEE0FEA3E0FF243554
:10ACBA00F58274233EF583E0FD74792FF582E4343E
:10ACCA0027F583ED12A146700312A3289027CEE040
:08ACDA007004A3E0642370CEB6
:01ACE200224F
:10D83A0012E398902708E0FF64116007EF6004E4A0
:10D84A00FF8039902706E0FE30E6047F01802DEE46
:10D85A0024FE601214601914601B14600E240470F4
:10D86A001912CE1D801912CEB4801412AA2A800F62
:10D87A0012EE0D800A12EE0E80057F0112ED5C1287
:08D88A00D78412C51A02DC0B61
:0BEDBB0090270312A3BFA312A3BF22E6
:10EB070012EDBB12C03D12DC55EF600302D83A127A
:10EB1700E3987F0212ED5C12D78412C51A12DC0B40
:01EB270022CB
:10E6DC009027D2A3E0241AF582E43428F58322E5AE
:10E6EC00BCF0A3E5BDF0A3E5BEF0A3E5BFF022EEC0
:10E6FC00F0A3EFF0C39480EE940222F5C6E5C62594
:05E70C00E025E0FF2202
:10E085009027D0EDF09027CE12E6FB50199027CEC1
:10E09500E0FEA3E0FFA3E0FD12D8929027CEE0FEBC
:10E0A500A3E0FF02E3D19027D0E0FF9027CEE0FC6C
:10E0B500A3E0FDF5828C83EFF08D828C83E0FF2257
:03CD84009027D025
:10CD870012E6FB504EE4A3F0A3F0C39027D1E09442
:10CD9700809027D0E094025014E475F0011287F7D1
:10CDA700AFF0FE12E3D112E6DCEFF0800612E6DC0C
:10CDB70074FFF09027D3E004F070069027D2E004C8
:10CDC700F0C39027D3E094109027D2E0648094803A
:10CDD70040B822E49027D2F0A3F09027D2E0FEA338
:10CDE700E0FFC39410EE6480948050299027D0E42C
:10CDF70075F0011287F785F082F583E0FD741A2F2D
:10CE070012E6E3EDF09027D3E004F070CD9027D23F
:05CE1700E004F080C5FD
:01CE1C0022F3
:04E3D100AD07AC06E2
:10E3D500D3ED947FEC940240037FFF22EDAE0478E9
:10E3E50002CEC313CE13D8F912E707C3ED9FFF750D
:10E3F500B9019027E412E6EB74E42FF582E43427A3
:04E40500F583E0FFBC
:01E4090022F0
:06D89200AB07AA06A90580
:10D89800D3EB947FEA940240037FFF22EBAE027839
:10D8A80002CEC313CE13D8F912E707AD03C3ED9F19
:10D8B800FF75B9019027E112E6EB75B90574E12F00
:10D8C800F582E43427F583E9F09027E1E0F5BCA37D
:10D8D800E0F5BDA3E0F5BEA3E0F5BF75B9027F0092
:01D8E800221D
:04912500C18EC10D29
:0FED6B00E0FF04F074E02FF582E43425F58322F5
:01EE0F0022E0
:01EE100022DF
:01EE110022DE
:10C43200300B0302C51912EC34EFF47002EEF47003
:10C442000302C519AB07EFB47E27E49025DAF0A307
:10C45200F0A3F0A304F09025DAE475F0011287F757
:10C46200FC740225F0F58274273CF583EFF0D20DBF
:10C4720022200D0302C5199025DAE07004A3E064BE
:10C48200027012EB547FFD9026FCE07003A3E06D76
:10C492006003C20D229025DAE0FCA3E0FD2402F540
:10C4A20082E43427F583EBF0ED64034C700FEB5418
:10C4B2007F2405FEE4339025DCF0A3CEF09025DA4C
:10C4C200E0FEA3E0FFC39405EE94004029EBB4FF25
:10C4D2000E9025DDE004F070069025DCE004F0907B
:10C4E20025DCE0FCA3E0FDC3EF9DFFEE9C4F700650
:10C4F200C20DD20AD20B9025DBE004F07006902523
:10C50200DAE004F0C39025DBE094649025DAE0944D
:07C51200004004C20DC20A43
:01C5190022FF
:10D7260030981DC2989025DEE02401FFE433FEA365
:10D73600E06F7001EE60099025DE12ED6BE599F061
:10D7460030993AC299902700E0FEA3E0FFC39026E5
:10D75600FFE09FEE6480F89026FEE0648098501704
:10D76600E475F0011287F7FE746625F0F5827427DA
:0ED776003EF583E0F59922C209D2B5D29C227D
:10ECBD009025CDE014F0E0700A902594E09025CDDC
:04ECCD00F0D20C2253
:03EE0800C2CF2254
:10EC340012ED96EF70057EFF7FFF22C2AF9025DFB5
:09EC440012ED6BE0FF7E00D2AF7F
:01EC4D0022A4
:0DED96009025DFE0FF9025DEE0C39FFF2207
:10ACE300536C6F742025326400253773005354412D
:10ACF3005455532000414C41524D53200048495371
:10AD0300544F525900434F4E54524F4C004D4F44F1
:10AD1300554C452000494E5055542020005377315F
:10AD230020202020200053772020202020200046B0
:10AD33006F726365204100466F726365204200496C
:10AD43006E202041202000496E2020422020002038
:10AD53002020202020200053773220202020200094
:10AD630054656D7020202000252B33642043202060
:10AD730000532F57207265760025642E256420200A
:10AD8300202020004C6F616465722000536572209F
:10AD93002320200025730053773120496E70200053
:10ADA30053772020496E70200053773220496E700C
:10ADB30020004131202064426D0041202020644264
:10ADC3006D003C2D32322E30200025322E3166208C
:10ADD30020202020004231202064426D00422020A8
:10ADE3002064426D002052414E474520002D3230F1
:10ADF300746F2D37002D37746F2B3620002020649D
:10AE0300426D2020004132202064426D00423220F6
:10AE13002064426D00536574414C524D0053657478
:10AE230020537720005365742053773100536574A2
:10AE33002053773200413120496E70200041202099
:10AE4300496E702000423120496E7020004220205C
:10AE5300496E702000413220496E7020004232203A
:10AE6300496E7020002533642064426D2000436FD7
:10AE73006E6669726D00456E7472793F20005241AF
:10AE83004E47452020004D4F44452020200041756A
:10AE9300746F20202000416C61726D202000436C90
:10AEA300656172202000486973746F7279002020F5
:10AEB3004E6F202020004C6F67206E6F7400656D0D
:10AEC300707479202000416C61726D732000537798
:10AED30031204F7574005057523C6D696E005377A3
:10AEE30032204F7574005057523C6D696E004131EA
:10AEF30020496E7020005069203C6D696E0042311C
:10AF030020496E7020005069203C6D696E0041320B
:10AF130020496E7020005069203C6D696E004232FA
:10AF230020496E7020005069203C6D696E00537794
:10AF3300312020202000466F726365642000537720
:10AF4300322020202000466F7263656420004D6F1D
:10AF530064756C65200054656D70202020004443A7
:10AF6300202020202000566F6C746167650000006C
:0EAF73000000000000000000000000000000D0
:109129004C21A6FFD0E70C01238E0121A635004C66
:10913900216AFF808C0C01238201216A34004C20B2
:10914900F2FFE55D0001209200000033004C2092FF
:10915900FFE8F30C0121F00120F232004C22B1FFAB
:10916900E55D0001229800000031004C2298FFE8DB
:10917900F30C0121F00122B130004C2268FFE55DBA
:109189000001222C0000002F004C222CFFE8F30CD8
:109199000121F00122682E00602421E4FFE80C0F70
:1091A90001206201222C2D00FFE86A0F01206201D3
:1091B90022982D01FFE8980F0120620120922D02CB
:1091C9004C21B2FFE47C000121760000002C004C08
:1091D9002176FFE8F30C01209E0121B22B004C20DF
:1091E900FEFFE99E0401209E0121762B0058209E56
:1091F900FFDD6D0F0120560120FE2900FFD9910FD7
:109209000120560120FE2901582056FFEAA00F012E
:1092190020E601209E2800FFEB280F0120E601210E
:10922900E428014C22A4FFE5250001227400000076
:1092390027004C2274FFE8F30C0121220122A42605
:10924900004C2238FFE52500012208000000250016
:109259004C2208FFE8F30C01211601223824004CA6
:1092690021BEFFE5250001218200000023004C21D9
:1092790082FFE8F30C01210A0121BE2200602421AA
:109289000AFFE80C0F0122500121822100FFE86A40
:109299000F0122500122082101FFE8980F012250F5
:1092A90001227421024C20B6FFE4430001206E0024
:1092B900000020004C206EFFE8F30C012280012001
:1092C900B61F004C2032FFE9770401228001206E8D
:1092D9001E00582280FFDD280F0122440120321D83
:1092E90000FFD93D0F0122440120321D01582244BB
:1092F900FFEAA00F0120DA0122801C00FFEB280FF2
:109309000120DA01210A1C014C2214FFD4050001B5
:10931900216A0000001B004C21CAFFE8F30C01215F
:109329008E0122141A004C218EFFB5B90F01215E5E
:109339000121CA19004C212EFFD39C0001215E0096
:10934900000018004C20C2FFE8F30C01207A01212B
:109359002E17004C207AFFB5B90F0121520120C206
:1093690016004C203EFFD8E90001214600000015F7
:10937900004C201AFFE8F30C01225C01203E140086
:109389004C225CFFB5B90F01214601201A13004C8C
:109399002220FFDB260001213A00000012004C21A7
:1093A900D6FFE8F30C01219A01222011004C219AE1
:1093B900FFB5B90F01213A0121D610006030213AD9
:1093C900FFD6020F0120CE01219A0F00FFD6640FAC
:1093D9000120CE01225C0F01FFD7E10F0120CE0150
:1093E900207A0F02FFD1E40F0120CE01218E0F0355
:1093F900602420CEFFEA7C0F01237601213A0E007A
:10940900FFE40A0F0123760122440E01FFD0670F02
:109419000123760120560E024C2086FFE105040146
:10942900204A0000000D004C204AFFDE390C0120C3
:10943900260120860C004C2026FFDDF60C012408AD
:1094490001204A0B004C200EFFE0C5040124200036
:1094590000000A004C2420FFDA370C0124140120F3
:109469000E09004C2414FFD9E50C0123FC0124202A
:1094790008005823FCFFE3250F0123A80124140742
:1094890000FFEA580F0123A801202607014C23F009
:10949900FFDB74040123E400000006004C23E4FF11
:1094A900D59F0C0123D80123F005004C23D8FFDAFE
:1094B900890C0123CC0123E404004C23CCFFE2EB0B
:1094C9000C01239C0123D803006030239CFFEA1080
:1094D9000F01236A0123CC0200FFEA340F01236A3A
:1094E9000123FC0201FFCFD90701236A0000000212
:1094F90002FFC6D70701236A000000020360302378
:109509006AFFE9EC0F01235E01239C0100FFE920BA
:109519000F01235E0120CE0101FFE7110F01235E38
:1095290001216A0102FFE7440F01235E0121A6011F
:10953900034C235EFFDAD80B00000001236A000008
:1095490060A2242D01235E01236A01239C0123CCFF
:109559000123D80123E40123F00123FC0124140190
:10956900242001200E01202601204A012086012005
:10957900CE01213A01219A0121D601222001225C42
:1095890001201A01203E01207A0120C201212E0169
:10959900218E0121CA0122140122440122800120C5
:1095A9003201206E0120B601210A0121820121BE6A
:1095B9000122080122380122740122A40120560146
:1095C900209E0120FE0121760121B20121E4012220
:1095D9002C0122680122980122B10120920120F276
:1095E90001216A0121A6606C22BD0001000400046A
:1095F9000001000100010001000200010001000159
:109609000001000100010003000400010001000144
:109619000001000100010001000100010001000139
:109629000001000200020001000100010003000125
:109639000001000100010001000100020002000117
:109649000001000100030001000100010001000107
:0696590000010001000108
:10B1A200EEF0A3EFF0A3ECF0EDA3F09027D574FF3F
:10B1B200F0A32274ADF074E8A3F07B017A23793511
:10B1C20022EEF0A3EFF0A3ECF0A3EDF022902144E5
:10B1D200E090232DF0902145E090232EF090213D28
:10B1E200E090232BF090213AA3E0FAA3E0F5828AC3
:10B1F20083E4FDFCFFFE22E075F010A424D9F9746B
:10B20200AE35F0FA9027D874FFF0A3EAF0E9A3F084
:10B212007B017A23793C2274AEF07400A3F07B01A7
:10B222007A237943227B017A23794A22EFF0D39061
:10B23200235BE094EB90235AE06480947F22E4FF46
:10B24200FE7DB07CC1E0F8A3E0F9A3E0FAA3E0FB45
:10B252001283C99027D522E0FCA3E0FDA3E0FEA360
:10B26200E0FF9027D802884774FFF0A374ADF0A3E3
:10B2720074F02274FFF0A374ADF0A374F822E075A9
:10B28200F010A424D1F974AE35F0FA74FF9027D8E7
:10B29200F0A3EAF0A3E922EF7B017A23795A229004
:10B2A200235A74FFF0A374EBF0229024EBE0902772
:10B2B200D52274FFF0A374ADF0A374C5F02274FF1D
:10B2C200F0A374ADF0A374CDF022E49021E2F0A3D8
:10B2D200F090235D22902150E090232DF090215197
:10B2E200E090232EF0902149E090232BF022E0FF02
:10B2F200A3E0CF9027D8F0A3EF2274FFF0A374ADA0
:10B30200F0A374522290235CE004F0ED25E0FEEC01
:10B31200339027CEF0A3CEF022EFF0E490235AF040
:10B32200A3F02290235AE004F022C390235BE0941E
:10B332000690235AE0648094802274ACF0A374ECEB
:10B34200F022E090232BF090239C22902359E004DA
:10B35200F0EF25E0FFEE33FE2290235BE004F022C3
:10B36200E0FD7F347E012274AEF0A3748922E0FFF7
:10B372009027CEE0FCA3E0FDED5F22E05407FF7EC4
:10B38200007401A807082274FFF0A374ADF0A3743F
:10B392004A2274ADF0A374322274ADF0A3743A223F
:10B3A200C3ED9406EC6480948022C3EB9406EA64B5
:04B3B20080948022E1
:10DAD8009027CA12B1A274ACF0A374E3F09026FCAC
:10DAE800E0FFA3E09027D8CFF0EF12B1BA129BAABB
:10DAF80012D6C69027D8EBF0A3EAF0E912B1AB74BE
:10DB0800ACF074EC12B210129BAA12B22012DF40D1
:0EDB180012B22712E184E49021E2F0A3F02281
:10E9EC009027CA12B1A274ACF0A374F012B1BB128E
:10E9FC009BAA12B21212DF8112B22012DEBE12B228
:04EA0C002702E18478
:10E711009027CA12B1A274ACF0A374F812B1BB1263
:10E721009BAA12B21212DF8112B22012DEBE12B205
:10E731002712E184E490242CF0902359F09023587F
:03E7410004F022BF
:10E744009027CA12B1A274ADF0A3740012B1BB1227
:10E754009BAA12B21212DF8112B22012DEBE12B2D2
:10E764002712E184E49024CFF090235CF0902358A6
:03E7740004F0228C
:10E920009027CA12B1A274ADF0A3740812B1BB1241
:10E930009BAA12B21212DF8112B22012DEBE12B2F4
:0CE940002712E184E49021E2F0A3F02211
:10EA10009027CA12B1A274ADF0A3741012B1BB1248
:10EA20009BAA12B21212DFC212B22012DEBE12B2C2
:04EA30002702E18454
:10EA34009027CA12B1A274ADF0A3741812B1BB121C
:10EA44009BAA12B21212DFC212B22012DEBE12B29E
:04EA54002702E18430
:10CFD9009027CE12B1C312B2ACB4010C74FFF0A306
:10CFE90074ADF0A37420800A74FFF0A374ADF0A3AC
:10CFF900742912B1BB129BAA7F807E0012E3D1EF84
:10D0090030E00812B1AD12B39480417F807E0012E6
:10D01900E3D1EF30E10812B1AD12B39B802E902518
:10D0290075E07004A3E06401700B12B1AD74ADF04A
:10D03900A374428017902575E07004A3E064029000
:10D0490027D5700512B389800312B2FC12B21112EE
:0ED059009BAA12B22012DFC212B22702DEBE64
:10C6D7009027CA12B1A274ADF0A3745A12B1BB125B
:10C6E7009BAA7F847E0012E3D1EF30E00812B1AD40
:10C6F70012B39480417F847E0012E3D1EF30E108CA
:10C7070012B1AD12B39B802E902577E07004A3E0A1
:10C717006401700B12B1AD74ADF0A3744280179031
:10C727002577E07004A3E064029027D5700512B363
:10C7370089800312B2FC12B211129BAA12B2201204
:10C74700DFC212B22712DEBE9022B0E030E12D9098
:10C7570024EBE070279023BEE090232DF09023BFB9
:10C76700E090232EF09023B712B34412B1EA128956
:10C777001B7D027C007F027E0002CFD99024EBE074
:10C78700701C9023A6E090232DF09023A7E0902320
:0FC797002EF090239F12B34412B1EA12891B2295
:10E2EB009027CA12B1A274ADF0A3746312B1BB1222
:10E2FB009BAA12B1AD74ADF0A3746BF090257312A1
:10E30B00B2F012B211129BAA12B22012DEBE9023EF
:0AE31B003F74DFF012B22702E003A6
:06DA89009027CA12B1C390
:10DA8F0012EDEC9027CEEEF0A3EF12B1AC74ADF027
:10DA9F00A3747412B1BB129BAA12B1AD74ADF0A3F3
:10DAAF00747CF09027CEE0FCA3E0FFE412B2F5F017
:10DABF00ECFFA3E4F0A3EF12B211129BAA12B22053
:09DACF0012DEBE12B22702E003D0
:06D59F009027CA12B1C37F
:10D5A5007F507E0212E3D19027CEE4F0A3EFF07F07
:10D5B500517E0212E3D19027D0E4F0A3EF12B1AC73
:10D5C50074ADF0A3748712B1BB129BAA12B1AD74EE
:10D5D500ADF0A3747CF09027CE12B2F0F09027D076
:10D5E500E0FFA3E09027DACFF0A3EF12B211129B70
:0DD5F500AA12B22012DEBE12B22702E0031D
:10DB74009027CA12B1A274ADF0A3748F12B1BB1274
:10DB84009BAA12D6C6EB12B28F12B1AC74ADF0A33D
:10DB9400749712B211129BAA902342742EF012D5DC
:10DBA4003B9027D8EB12B29212B1AC74ADF07497DB
:0CDBB40012B21E129BAA12B22702DEBEA3
:10E325009027CA12B1C312B2ACB4010C74FFF0A3AA
:10E3350074ADF0A3749A800A74FFF0A374ADF0A3D2
:10E3450074A312B1BB129BAA12B21212DFC212B28F
:0AE355002012DEBE12B22702E1849E
:10EA58009027CA12B1A274ADF0A374AC12B1BB1264
:10EA68009BAA12B21212DFC212B22012DEBE12B27A
:04EA78002702E1840C
:10D9E5009027CA12B1C312B2ACB4010C74FFF0A3F4
:10D9F50074ADF0A374B5800A74FFF0A374ADF0A301
:10DA050074BD12B1BB129BAA90258112B24060026F
:10DA1500500512B2B4800912B2C090258112B259D4
:10DA250012B212129BAA12B22012DEBE12B2270245
:02DA3500E0030C
:10DA37009027CA12B1C312B2ACB4010C74FFF0A3A1
:10DA470074ADF0A374D8800A74FFF0A374ADF0A38B
:10DA570074E012B1BB129BAA90258512B2406002F6
:10DA6700500512B2B4800912B2C090258512B2597E
:10DA770012B212129BAA12B22012DEBE12B22702F3
:02DA8700E003BA
:06E0C5009027CA12B1C34E
:10E0CB007FDC7E0012E3D19027CEEF12B1AC12B100
:10E0DB00B5129BAA9027CEE09027D5700512B26A95
:10E0EB00800312B27512B211129BAA12B1AD12B209
:0AE0FB0019129BAA12B22702DEBE22
:10DDF6009027CA12B1A274AEF0A3740812B1BB1276
:10DE06009BAAE4FFFE7DB07CC190258912B24760D3
:10DE160002500512B2B4800912B2C090258912B21E
:10DE26005912B212129BAA12B22012DEBE12B227E9
:03DE360002E00304
:10DE39009027CA12B1A274AEF0A3741012B1BB122A
:10DE49009BAAE4FFFE7DB07CC190258D12B247608C
:10DE590002500512B2B4800912B2C090258D12B2D7
:10DE69005912B212129BAA12B22012DEBE12B227A6
:03DE790002E003C1
:06E105009027CA12B1C30D
:10E10B007FE07E0012E3D19027CEEF12B1AC12B1BB
:10E11B00B5129BAA9027CEE09027D5700512B26A54
:10E12B00800312B27512B211129BAA12B1AD12B2C8
:0AE13B0019129BAA12B22702DEBEE1
:10EA7C009027CA12B1A274AEF0A3741812B1BB12D3
:10EA8C009BAA12B21212DFC212B22012DEBE12B256
:04EA9C002702E184E8
:10E40A009027CE12B1C312B2AC700C74FFF0A37491
:10E41A00AEF0A37420800A74FFF0A374AEF0A37464
:10E42A002812B1BB129BAA12B21212DFC212B22078
:09E43A0012DEBE12B22702E184D9
:10D067009027CA12B1A274AEF0A3743012B1BB12EA
:10D077009BAA12B21212DFC212B22012DEBE12B285
:10D087002712E1849022B0E030E12D9024EBE0708C
:10D09700279020E4E090232DF09020E5E090232EC8
:10D0A700F09020DD12B34412B1EA12891B7D017C96
:10D0B700007F0E7E0002E40A9024EBE070219020AE
:10D0C700D8E090232DF09020D9E090232EF09020E7
:10D0D700D1E090232BF09020CE12B1EA12891B22C7
:10D602009027CA12B1C312B2ACB4010C74FFF0A3DA
:10D6120074AEF0A37438800A74FFF0A374AEF0A362
:10D62200744012B1BB129BAA12B21212DFC212B222
:10D632002012DEBE12B22712E1847FDC7E0012E3EA
:10D64200D112B29970047D4580027D4612EDE67FCB
:10D65200347E0112E3D1EF20E00312B2A112B2CC68
:02D66200F022B4
:10D664009027CE12B1C312B2ACB4010C74FFF0A374
:10D6740074AEF0A37448800A74FFF0A374AEF0A3F0
:10D68400745012B1BB129BAA12B21212DFC212B2B0
:10D694002012DEBE12B22712E1847FDC7E0012E388
:10D6A400D112B29970047D4780027D4812EDE67F65
:10D6B400347E0112E3D1EF20E10312B2A112B2CC05
:02D6C400F02252
:10D7E1009027CA12B1A274AEF0A3745812B1BB1241
:10D7F1009BAA12B21212DFC212B22012DEBE12B204
:10D801002712E1847FE07E0012E3D112B299700405
:10D811007D4980027D4A12EDE67F347E0112E3D11B
:10D82100EF20E20312B2A112B2CC04F09024EBE09B
:09D83100700612B1CF12891B220E
:10D1E4009027CA12B1A274AEF0A3746012B1BB123C
:10D1F4009BAA12B21212DFC212B22012DEBE12B207
:10D204002712E1847FE07E0012E3D112B299700408
:10D214007D4B80027D4C12EDE67F347E0112E3D11A
:10D22400EF20E30312B2A112B2CC04F09022B0E0DA
:10D2340030E11D9024EBE0701712B2D790239C12BA
:10D24400B1EA12891B7D017C007F0F7E0012D66437
:01D2540022B7
:06B5B9009027CA12B1C385
:10B5BF009021E2E4F0A304F07FDC7E0012E3D1904F
:10B5CF0027CEEFF090235DE0B4010C7FE07E0012F8
:10B5DF00E3D19027CFEFF09022B0E0FF20E00302FD
:10B5EF00B6CE9027CEE0FE702E90235DE0702890AF
:10B5FF00235AE0FCA3E0FDD394F8EC6480947F40E1
:10B60F000302B6A512B3A2400302B6CE12B35B700B
:10B61F003812B32502B6CE9027CFE0FD702E9023BF
:10B62F005DE0B4012790235AE0FAA3E0FBD394F82E
:10B63F00EA6480947F4002805D12B3AC400302B68F
:10B64F00CE12B35B700312B32502B6CEEEB401294E
:10B65F0090235DE0702390235AE0FAA3E0FBC3949C
:10B66F00F9EA6480947F5002802C12B3AC505012D0
:10B67F00B35B700312B3258046EDB4013490235DA4
:10B68F00E0B4012D90235AE0FCA3E0FDC394F9EC44
:10B69F006480947F500C90235A74FFF0A374F9F0D8
:10B6AF00801D12B3A2501812B35B701312B3258012
:10B6BF000E12B32C5009A3E004F0700312B325EF60
:10B6CF0030E1509027CEE0B4011490235DE0700E6E
:10B6DF00C390235BE094FA12B2375021801A90275F
:10B6EF00CFE0B4011D90235DE0B40116C390235B3E
:10B6FF00E094FA12B237500512B2A4801690235B71
:10B70F00800612B230400CA3E024FFF090235AE0E1
:10B71F0034FFF012B1AD74AEF0A37468F090235AF9
:10B72F0012B2F012B1BB129BAA12B230501412B166
:10B73F00AD12B30012B1BB129BAA12B21212E1FEEC
:10B74F00804890235AE0B4FF14A3E0B4F90F902778
:10B75F00CFE0700990235DE0B40102801890235A66
:10B76F00E0B4FF16A3E0B4F9119027CEE0700B9070
:10B77F00235DE0700512B212800812B32C12B212C0
:10B78F00400512E35F800312E27612B22012E0440A
:0BB79F0012B22712DEBEE49022B0F0D0
:01B7AA00227C
:10E8F3009027CA12B1A274AEF0A3747112B1BB1205
:10E903009BAA12B1AD74AEF0A3747912B211129B2B
:0DE91300AA12B22012E1C112B22702E23BAB
:06DB26009027CA12B1C3F2
:10DB2C007F347E0112E3D19027CE12B22E50099091
:10DB3C0027CEE054FEF080219027CEE04401F07F08
:10DB4C00DC7E0012E3D112B29960047D4680027D26
:10DB5C004512EDD8E4FF12C1469027CE12B36212E3
:08DB6C00D89212B1CF02891B0F
:06D8E9009027CA12B1C332
:10D8EF007F347E0112E3D19027CE12B22E500990D1
:10D8FF0027CEE054FDF080219027CEE04402F07F48
:10D90F00DC7E0012E3D112B29960047D4880027D63
:10D91F004712EDD8E4FF12C1469027CE12B3621220
:0ED92F00D89212B2D790214612B1EA02891B9B
:06D39C009027CA12B1C384
:10D3A2007F347E0112E3D19027CE12B22E50099023
:10D3B20027CEE054FBF080219027CEE04404F07F9A
:10D3C200E07E0012E3D112B29960047D4A80027DB0
:10D3D2004912EDD87F0112C1469027CE12B36212D4
:10D3E200D89290215CE090232DF090215DE0902373
:10D3F2002EF0902155E090232BF090215212B1EAA9
:03D4020002891B81
:06D405009027CA12B1C31A
:10D40B007F347E0112E3D19027CE12B22E500990B9
:10D41B0027CEE054F7F080219027CEE04408F07F30
:10D42B00E07E0012E3D112B29960047D4C80027D44
:10D43B004B12EDD87F0112C1469027CE12B3621268
:10D44B00D892902168E090232DF0902169E09023F1
:10D45B002EF0902161E090232BF090215E12B1EA27
:03D46B0002891B18
:10EAA0009027CA12B1A274AEF0A3748112B1BB1246
:10EAB0009BAA12B21212DFC212B22012DEBE12B232
:04EAC0002702E184C4
:10EB28009027CA12B1A212B36912B1BB129BAA12E2
:10EB3800B21212DFC212B22012DEBE12B22702E1F6
:01EB48008448
:06DD28009027CA12B1C3EE
:10DD2E007FDC7E0012E3D19027CE12B31B90235AD4
:10DD3E00F0A3EF12B1AC12B1B5129BAA9027CEE0B0
:10DD4E009027D5700512B26A800312B27512B21105
:0FDD5E00129BAA12B22012DEFF12B22702E1843A
:06D93D009027CA12B1C3DD
:10D943007FDC7E0012E3D19027CEEFF090235AE0E4
:10D953007002A3E0700990235AF0A304F08003122D
:10D96300B31D12B1AD12B1B5129BAA9027CEE090B0
:10D9730027D5700512B275800312B26A12B2111262
:0ED983009BAA12B22012DEFF12B22702E1842C
:10E977009027CA12B1C3902078E090232DF0902001
:10E9870079E090232EF0902071E090232BF09020D7
:07E997006E12B1EA02891BB8
:06E443009027CA12B1C3CC
:10E4490090235AA3E0FD7FDC7E0012D892E4FF12EC
:10E45900C14690224EE090232DF090224FE0902368
:10E469002EF0902247E090232BF090224412B1EA3B
:03E4790002891BFA
:10E80C009027CA12B1A274AEF0A3749112B1BB12CC
:10E81C009BAA12B1AD12B36912B211129BAA12B219
:10E82C002012DFC212B22712E184E490200DF022F4
:10E86A009027CA12B1A212B39412B1BB129BAA1278
:10E87A00B1AD12B36912B211129BAA12B22012DF01
:0EE88A00C212B22712E18490200D7401F02218
:10E898009027CA12B1A212B39B12B1BB129BAA1243
:10E8A800B1AD12B36912B211129BAA12B22012DFD3
:0EE8B800C212B22712E18490200D7402F022E9
:10E525009027CA12B1C390200DE0FD7F807E0012B6
:10E53500D892E4FF12C14690225AE090232DF09024
:10E54500225BE090232EF0902253E090232BF09055
:08E55500225012B1EA02891BF9
:06DD6D009027CA12B1C3A9
:10DD73007FE07E0012E3D19027CE12B31B90235A8B
:10DD8300F0A3EF12B1AC12B1B5129BAA9027CEE06B
:10DD93009027D5700512B26A800312B27512B211C0
:0FDDA300129BAA12B22012DEFF12B22702E184F5
:06D991009027CA12B1C389
:10D997007FE07E0012E3D19027CEEFF090235AE08C
:10D9A7007002A3E0700990235AF0A304F0800312D9
:10D9B700B31D12B1AD12B1B5129BAA9027CEE0905C
:10D9C70027D5700512B275800312B26A12B211120E
:0ED9D7009BAA12B22012DEFF12B22702E184D8
:10E99E009027CA12B1C3902180E090232DF09021D0
:10E9AE0081E090232EF0902179E090232BF090219E
:07E9BE007612B1EA02891B89
:06E47C009027CA12B1C393
:10E4820090235AA3E0FD7FE07E0012D8927F011212
:10E49200C146902060E090232DF0902061E090230F
:10E4A2002EF0902059E090232BF090205612B1EAE2
:03E4B20002891BC1
:10E55D009027CA12B1C390200DE0FD7F847E00127A
:10E56D00D8927F0112C14690206CE090232DF0903F
:10E57D00206DE090232EF0902065E090232BF090FD
:08E58D00206212B1EA02891BB1
:10808C009027CA12B1C390242CE0146033146054AE
:10809C002402705D90270AE030E10A902358E070CA
:1080AC0004A3E004F0E4902358F012D166EF6003CF
